:100000000C9427030C9444030C9444030C94440371
:100010000C9444030C9444030C9444030C94440344
:100020000C9444030C9444030C9452210C948E20A1
:100030000C946A170C9444030C9444030C944403EA
:100040000C9444030C9444030C9444030C94440314
:100050000C9444030C941D170C9444030C94440317
:100060000C9444030C9444030C9444030C944403F4
:100070000C9444030C9444030C9444030C944403E4
:100080000C9444030C9444030C9444030C944403D4
:100090000C9444030C9444030C9444030C944403C4
:1000A0000C9444030C9444030C944403C50AC50AFD
:1000B000F50AF50A8E0BAC0BF20CF20CB70B2A0CFE
:1000C0003D0C3D0CB212C812CF12DB14DB14071327
:1000D00018132B1369136E139613BA13F013F3133B
:1000E000FF130914211459146B149114B314941EA2
:1000F000BB1E7020BB1E7020071F2A1F70202B20E4
:100100003B20FD377A585A000004E6D6B446020078
:10011000210116000000742FE5A3E0015B00C45D1F
:10012000003D88898654A0BAD98FAB276724B023B5
:100130007736721CE2E03D671A79777FEF6C31E029
:10014000EAEEA10EAC7C9249F327C10B71DDD41C01
:10015000C77E4798610839DD557D214C908C72929D
:10016000471E9BF2B9D5548E32CA13108DB5CE21DD
:10017000F52582E68B2A92F4677F2AEF99687453FB
:100180001DF549CC92C5091C0C1E5872E525555227
:10019000EA132138C76884000A618BDD6BBEF6C2A2
:1001A000C37F3CDF8934CC11A59302316CBCF2D4FF
:1001B000DC8A6E4AFABA8E652C44C85F83BD40FD66
:1001C0008CA758E426272DCD8A2077DD6AE3F0A29C
:1001D000F2F4B50466231FEA23827780BEA3279931
:1001E0005531FFD2BE00CD6031D0ABBF6CD3000122
:1001F000E001DC020000A0347787B1C467FB020095
:1002000000000004595A01000100B3029416C716F9
:10021000000002000200AF029416C716000003009F
:100220000100B4029416C7160000040002009902EF
:100230009416C716AD1505000100B5029416C71631
:100240000000060002009B029416C716000007007B
:100250000200B1029416C716000008000100B602A1
:100260009416C7160000090002009D029416C716D6
:1002700088150A0002009F029416C71688150B0005
:100280000200A1029416C71688150C000200A302F2
:100290009416C71688150D000200A5029416C716FD
:1002A00088150E000200A7029416C71688150F00C5
:1002B0000200A9029416C716881510000200AB02AE
:1002C0009416C716881511000200AD029416C716C1
:1002D000881512000200B7029416C716000013001A
:1002E0000200B9029416C716000014000100BB02F8
:1002F0009416C71600001500000000000115161620
:10030000000005010902A10185020901A1000509FA
:100310001901290515002501950575018102950131
:10032000750381010501093009311581257F950289
:100330007508810609381581257F950175088106A4
:10034000050C0A38021581257F950175088106C0C4
:10035000C005010980A101850319012AB700150113
:1003600026B700950175108100C0050C0901A10197
:10037000850419012AA002150126A0029501751015
:100380008100C005010906A1018506050719E029BC
:10039000E715002501950875018102050719002957
:1003A000EF1500250195F075018102050819012955
:1003B00005950575019102950175039101C00660CF
:1003C000FF0961A1010962150026FF00952075084B
:1003D00081020963150026FF00952075089102C06F
:1003E00005010906A101050719E029E71500250106
:1003F00095087501810295017508810105071900AD
:1004000029FF150026FF00950675088100050819CB
:10041000012905950575019102950175039101C0AA
:1004200009025B00030100A0FA09040000010301B6
:100430000100092111010001224000070581030884
:10044000000109040100020300000009211101005C
:100450000122220007058203200001070503032073
:10046000000109040200010300000009211101003C
:100470000122BC00070584032000011201000200D4
:10048000000008E9CE01000001010203011C03760F
:1004900000690061006C003A0066003600340063B9
:1004A0000032006200330063000000120373006931
:1004B000006E00700061006400320030000000181F
:1004C0000343006F0075006E00740020004B006550
:1004D00000650070006F00000004030904000000C4
:1004E0000050005400000000004F0055005F006005
:1004F00000610058005C005D005E00570059005A22
:10050000005B005600E200620063002A0000000069
:100510000050005400000000004F0055005F0060D4
:1005200000610058005C005D005E00570059005AF1
:10053000005B005600E200620063002A0000000039
:100540000050005400000000004F0055005F0060A4
:1005500000610058005C005D005E00570059005AC1
:10056000005B005600E200620063002A0000000009
:100570000050005400000000004F0055005F006074
:1005800000610058005C005D005E00570059005A91
:10059000005B005600E200620063002A00000000D9
:1005A000000000000000000000000000000000004B
:1005B000000000000000000000000000000000003B
:1005C000007E0F00D4FFFFFFC7000000780000008E
:1005D00000000000002A2B2800000000000000009E
:1005E000000000000000000029000000002C1E3464
:1005F00020212224342627252E362D3738271E1F6A
:10060000202122232425263333362E37381F040594
:10061000060708090A0B0C0D0E0F10111213141502
:10062000161718191A1B1C1D2F3130232D350405E0
:10063000060708090A0B0C0D0E0F101112131415E2
:10064000161718191A1B1C1D2F3130354C00112498
:100650001FBECFEFDAE0DEBFCDBF11E0A0E0B1E01A
:10066000E4E7FDE602C005900D92AE36B107D9F77A
:1006700025E0AEE6B1E001C01D92AD32B207E1F770
:100680000E945C0D0C94B8360C9400002F923F929F
:100690004F925F926F927F928F929F92AF92BF9292
:1006A000CF92DF92EF92FF920F931F93CF93DF933E
:1006B000CDB7DEB72C970FB6F894DEBF0FBECDBF17
:1006C0007C01DC0113964D915C91149711966C910D
:1006D00011978C910E94E91981110C94430D61E0EE
:1006E000C7010E942E338C01F7018281811106C05F
:1006F000D70112963C9031103EC083C680910D0107
:1007000090910E010196A1F373ECC72E72E0D72EE3
:10071000A12CB12C9924939480910D0190910E01FC
:100720008A159B052CF3F60186818823E9F08185E3
:1007300092850817190739F48091C1029091C2027D
:100740000817190789F0D6011F969C921F971C96CF
:100750001C930E931B97C6010E946F18C601069644
:100760000E9428181092C002BFEFAB1ABB0AE6E144
:10077000CE0ED11CD1CFC80182519F45409708F0C1
:10078000AFC08FEF93E00E941C36811127C6025143
:100790006BEFA62EBB24B394002379F0A114F4E0F0
:1007A000BF0609F41BC6C5010E941C36811101C099
:1007B00001502FEFA21AB20AEFCF19821A821B82C0
:1007C0001C82CC24CA9485010F5F1F4FC5010E9473
:1007D0001C3689831A82882309F400C6813009F007
:1007E0007AC0450132E0830E911CC8010E941C367C
:1007F000D82E8A83882309F4F1C58FEF8D0D8330BD
:1008000050F40E5F1F4FC4010E941C368B83811170
:1008100062C05801D8CF8BEF8D0D833070F5350154
:1008200043E0640E711CC4010E941C368B8381114D
:1008300002C08301EECF85010C5F1F4FC3010E94F0
:100840001C368C83882329F32B813C8121305FEF78
:10085000350718F0922F80E001C0C901A6E0DA1632
:1008600031F0B7E0DB1631F00E94B22AD2CF0E94FD
:10087000812ACFCF0E94F829CCCFE4E0DE1611F018
:100880008401C7CFC4010E941C36D82E85010C5F9D
:100890001F4FC50103960E941C36DD2009F49EC53A
:1008A000882309F49BC5282F30E021503109C29ECE
:1008B000A001C39E500D11248D2D90E00197840F4F
:1008C000951F019708F4A5CFAFE9BFE01197F1F7A5
:1008D00000C00000F6CFCE0101960E94523299CF9F
:1008E0000031EFE51E0731F00131FFE51F07A9F4E4
:1008F00082E001C081E00E9470230E94A11D6EC5AC
:10090000680127E5D21A3FEFC316D10409F008F4B5
:1009100087C5F70132803320D1F00F35FDE51F0781
:1009200061F000362DE5120761F00E353DE5130745
:1009300071F480910001811104C081E08093000175
:100940004DC51092000180E00E94591947C5809161
:100950000001811108C0C80197558F3F910509F02A
:1009600008F47AC1CDC1480140EE841A9108209064
:10097000280580910205282A8091B901282A58E08B
:100980008516910480F498012770332781E090E068
:1009900001C0880F2A95EAF7332011F0282A18C0E1
:1009A0008095282215C0332009F416C110937101D7
:1009B000009370010E94521760938E0270938F0211
:1009C0008093900290939102109296021092950259
:1009D000D7018D919C910E94052321E030E0F9011F
:1009E00002C0EE0FFF1F8A95E2F7FC87EB8720918C
:1009F00097023091980238872F834091700150916F
:100A000071015A8749871D82432C512C5D81E52F46
:100A1000F0E0EE0FFF1FE45DFB4FC080D180C114FA
:100A2000D10409F4F0C0211005C0D60112968C91B2
:100A30008111CEC0F601838190E02B853C85822315
:100A40009323892B09F4C4C08085982F977009F4EB
:100A500087E038E08316910440F4332019F081FDDB
:100A600009C0B6C082FD06C0B3C0332009F4B0C0CF
:100A700080FFAEC0D601AD90BC900A151B0519F4DD
:100A8000332009F4A5C0EF81F885CE16DF0609F4FE
:100A90009FC0D6011D96ED91FC911E97309721F0D5
:100AA0008081882309F494C0622DC6010E94C9196F
:100AB000882309F48DC00A151B0511F4320102C008
:100AC000612C712CB62DB170BE8381E0A114B104EC
:100AD00041F0B11106C0E985FA85AE16BF0609F0EE
:100AE00080E080FF75C080E00E945919D092980282
:100AF000C092970281E080939402D60115968C9162
:100B000080939202BE81B11113C0AB2889F0F60127
:100B1000808191819C0124503109213A310530F4C2
:100B2000682F85E991E00E94931702C00E94DD239F
:100B3000D6011696AD90BC901797C5019A95811570
:100B40009F4110F4E0EEBE2255245394C501019755
:100B5000853A9D4508F0512CD6011996ED91FC91EE
:100B60001A97309739F01B966D917C911C9781E014
:100B700009955822552029F1F601868197810E9416
:100B8000A33580939302C501F8E08F16910418F401
:100B90000E94081916C00497813A910530F46A2D15
:100BA00085E991E00E94BB170EC00E943F318FE3A0
:100BB0009CE90197F1F700C000008A2D0E940F24E4
:100BC00002C00E943F3191E0692660FE79C1C3CE28
:100BD000AD81AF5FAD831ACF8091700190917101AB
:100BE0000817190781F41092710110927001109288
:100BF0008E0210928F021092900210929102109227
:100C00009602109295028091970290919802009717
:100C100009F4A1CEB8E08B16910438F4622D0E943D
:100C2000C919811198CE81E014C0FC012081318165
:100C30000217130729F4311006C01092940208C05D
:100C4000332009F488CEDC0118968C9185FD83CE83
:100C500080E00E9459197FCE20910D0130910E0144
:100C60002817390724F490930E0180930D01F701A2
:100C7000228136E1389F5001399FB00C1124A50123
:100C80004D535D4F6A01DA0150962C935097928133
:100C900016968C911697992341F11A961C930E93F0
:100CA00019978F5F16968C930E945E17F6019687B0
:100CB00085878091280587839091C0028091B90132
:100CC000892B80870190F081E02D309749F0D60183
:100CD00054966D917C915597C50187539D4F099509
:100CE0001093C2020093C1020BC0882349F0FA019D
:100CF0008189882329F0C50187539D4F0E942818B8
:100D00008091B40280FF9DC00E945E176C01D701E4
:100D100012968C918823D9F18091190182FF08C025
:100D200022E831E040E0B60180E090E00E94831BC1
:100D30000B31BCE51B0779F00C31ECE51E0789F09F
:100D40000A31FCE51F07A1F480911901982F9095B5
:100D500090FB80F909C0809119018160809319018D
:100D600007C0809119018E7F809319010E94461B54
:100D7000C8019056811520E2920720F0905E8115FF
:100D8000904180F51092DD011092DC015AC0013EC5
:100D9000110521F4809119018F7E06C0053E1105D1
:100DA00031F4809119018F7D809319011BC0C80116
:100DB0009056811540E2940720F0905E8115904195
:100DC00088F48091190182FF3CC08091B60281FDB8
:100DD00038C022E831E040E0B60180E090E00E94B7
:100DE000831B2FC08091190180FF2BC0D701129661
:100DF0008C910832110538F40E311105B8F4043025
:100E0000110578F41CC00933110538F40D321105B1
:100E100090F40B32110579F012C00436110559F027
:100E20000EC09091B40294FD0AC04DC09091B402DE
:100E300093FD05C048C09091B40292FF44C0811157
:100E4000EFC0033FFCE51F0709F417C108F01BC101
:100E5000083D3CE5130709F40AC1093D4CE51407B8
:100E600009F42DC1073D5CE5150709F4FAC0D70167
:100E700012962C9121112CC10631BCE51B0709F0FB
:100E80008EC28091B901982F9A7A3091B30230FDC9
:100E90005FC231FD63C232FD67C233FD6BC22223E4
:100EA00009F471C281E0911101C080E08093720168
:100EB000992309F466C265E385E991E00E94BB17B6
:100EC0000E943F318BC2882309F4A3C02091B9014D
:100ED00080912805982F922B392F3D7F79F1109220
:100EE000DD011092DC013091B40231FD27C0F80120
:100EF00043E0F695E7954A95E1F7EE71FF27E65452
:100F0000FE4F98012F70332781E090E002C0880FD8
:100F1000991F2A95E2F7809590952081318182234F
:100F2000932391838083A70160E0C8010E94641B22
:100F3000809128058D7F0E94AE3067C038E0F701B0
:100F4000A2E8B1E001900D923A95E1F71092840188
:100F500010928601109285014091DC015091DD01D3
:100F600004171507D1F53091B40235FF36C0409112
:100F7000190141FF02C036FF30C04091DA015091A3
:100F8000DB01B601641B750B4091B1025091B202B6
:100F90006417750710F521FF08C080911901806161
:100FA0008093190182E00E94C9308091B90185FFC8
:100FB00008C08091190180628093190180E20E942B
:100FC000C9306091190166956170A7018091DC01BB
:100FD0009091DD010E94641B01C296959170209151
:100FE000190190FB21F9209319018D7F0E94AE30E9
:100FF0001093DD010093DC01D092DB01C092DA0195
:101000008091190184608093190182E00E94DD3093
:10101000E5C1970140E0B601C8010E94831BDEC113
:101020001092DD011092DC01033FBCE51B0729F1A2
:1010300070F4083DFCE51F07D1F0093D2CE51207CF
:10104000F1F1073D3CE5130709F042C00AC0053F36
:101050004CE5140719F1E0F0063F8CE5180749F15B
:1010600037C006E221EE41EE67ED7CE52DC007E2D8
:1010700025EE45EE68ED7CE527C006E221EE40EE68
:1010800063EF7CE521C0053F8CE5180739F060F47B
:1010900007E225EE44EE64EF7CE516C006E221EEA1
:1010A00042EE65EF7CE510C0063FACE51A0709F09B
:1010B000DECE07E225EE46EE66EF7CE505C008E2EF
:1010C00021E045EE69ED7CE5C7010E94911886C1DB
:1010D0001092BF020330BDE51B0758F40A3FECE550
:1010E0001E0780F4C80182509C45449708F02EC129
:1010F00009C00136FDE51F0729F0053A2DE5120765
:1011000009F024C10E94283090937F0380937E03CE
:1011100001313CE5130709F4C6C008F042C00930AC
:101120005CE5150709F49BC000F505309CE519073F
:1011300009F485C078F40330BCE51B0709F478C0D6
:1011400008F07AC002301C4509F0F7C080917E0398
:101150008160F1C007302CE5120709F478C008F06F
:101160007AC080917E038061E6C00D304CE51407A3
:1011700009F487C058F40B308CE5180709F479C0DE
:1011800008F07BC080917E0388606FC00F30ACE5B3
:101190001A0709F480C008F082C080917E03877F1F
:1011A000CAC00D3FECE51E0709F471C000F505311A
:1011B0002CE5120709F485C068F403314CE51407E7
:1011C00009F475C008F095C00E94A92380917E03A0
:1011D0008F77B1C00B3F8CE51807A9F108F054C018
:1011E0000A3F1C4509F0A9C080917F0340C001302F
:1011F000BDE51B0709F489C058F40F3FFCE51F0744
:1012000009F45AC008F069C080917F0382602FC042
:1012100001363DE5130709F47EC0053A4DE5140794
:1012200009F483C002301D4509F087C060E06EC03C
:1012300080917E0382607FC080917E0316C0809182
:101240007E03886078C080917F0382604FC0809168
:101250007E03806270C080917E0380646CC00E94B7
:10126000A92380917E03806866C0846064C0816029
:101270003DC080917E038E7F5EC080917E038D7F16
:101280005AC080917E0316C080917F0318C0809160
:101290007F038D7F2BC080917E038F7E4CC0809119
:1012A0007E038F7D48C080917E038F7B44C08091F8
:1012B0007E03877F8B7F3FC080917F038D7F8E7FF2
:1012C00015C080917E0382FB222720F991E09227AE
:1012D00090FB82F990FB83F92EC080917F03982FB9
:1012E000909591708E7F892B90FB81F980937F037D
:1012F00024C00E94A92380917E0387FB222720F926
:1013000091E0922790FB87F916C061E08EE090E0B3
:101310000E942A3612C080917E0384FB222720F986
:1013200091E0922790FB84F906C080917E03982F6C
:10133000909590FB80F980937E0380917E0390913D
:101340007F030E941B300E94A92348C021E094CD56
:10135000482F447409F49DCD90E09BCD482F4171F6
:1013600009F499CD90E097CD482F487809F495CDB0
:1013700090E093CD827209F492CD222321F0109255
:10138000720169E299CD80917201882311F065E3C1
:1013900001C069E285E991E00E94931791CDD701E0
:1013A00012968C91882309F49CC00A358DE51807A4
:1013B00009F492C008F081C00115ACE51A0709F0E4
:1013C00076C00E94A9232FEF34E34CE02150304037
:1013D0004040E1F700C000000E940C178091050515
:1013E000877009F450C3D70112968C91882309F4B1
:1013F0004AC380917F0382FD46C382E00E94DD30B4
:1014000042C30031FFE51F0721F481E00E946423FD
:1014100074CA01312FE5120709F072CA82E0F6CFD3
:1014200061ED73E08C2D0E948D27892B09F071CA24
:1014300086E18C9DF0018D9DF00D1124ED53FD4F43
:1014400086818130E1F48091D1039091D203892B80
:1014500009F45FCA8091D3039091D403892B09F4D6
:1014600058CA8091D5039091D603892B09F051CAAF
:101470008091D7039091D803892B59F04ACA8230C2
:1014800009F047CA8091D5039091D603892B09F4BE
:1014900040CA26E12C9DC0012D9D900D11248D5335
:1014A0009D4FDC0150961C920E946F1832CA0E3D6F
:1014B0001C45B9F40E94393091CF0B35EDE51E077C
:1014C00069F00C351D4569F480917F0382FB882704
:1014D00080F991E0892703C081E001C080E00E948B
:1014E000FA30F701868197810097B9F4F70182817C
:1014F00000811181882349F0C8010E94C922D82E99
:10150000682FC8010E94342304C0C8010E9405232B
:10151000D82EB8018D2D0E94CA1C0E94812E182F32
:10152000092FD7011296BC9012971596CC90C294B1
:101530003FE0C322809105058770B9F0BB20A9F078
:10154000892F807F803421F080E2810F883068F01D
:1015500080917F0382FD09C082E00E94DD3080918E
:1015600005058770AA24A3948111A12C902E929432
:101570002FE09222892D90E08C30910508F032C244
:10158000FC01EA5AFF4F0C948E36902F9F70802FEB
:10159000807FD92E19F0D29490EFD922BB20A9F0E8
:1015A000DD2009F4FFC180E2810F883010F01111B5
:1015B00004C08D2D0E94D03005C08091C002D82A71
:1015C000D092C0020E943F31EDC1812F0E94DD23E5
:1015D000DD2009F407C280E2810F883068F1112311
:1015E00059F18D2D0E94C2302AC0902F9F70802FFC
:1015F000807FD92E803219F0D29480EFD822112327
:1016000021F0113009F45CC067C080917F0382FF34
:1016100019C0BB2059F0DD2029F08D2D0E94D0305B
:101620000E943F3180E00E940F24DCC180E00E94D4
:10163000DD23DD2009F4D6C18D2D0E94C9300E9422
:101640003F31D0C1BB2001F1CC20D1F0B1E0CB12B1
:1016500006C0809128058D290E94AE30C3C18091BB
:10166000B502823068F0C8120BC00E94A33080918E
:101670000205D812D09202058D2D0E94D623B2C148
:10168000809128058D29F9CFCC2079F08091B50281
:10169000E1E0CE1210C0823008F4A4C18091B901FB
:1016A0008D2109F49FC10E94AF310E94A3308D2D7E
:1016B0000E94CF2397C18230C0F3C812F6CF92C1E7
:1016C0008091BB02BB2021F08C1508F48BC1D4CFD4
:1016D000C81608F087C1EBCFBB20E9F0CC2061F23F
:1016E00020E0D7014C9111965C91119712966C9164
:1016F000129713967C91139714968C910E94053340
:101700008091B60281FD4EC1F701858180FF4AC1FB
:101710008F708583B1CFC1104EC1C9CF802F869500
:101720008695837019F0813061F05CC1BB2021F097
:10173000812F902F937002C080E090E00E940618E5
:1017400057C1BB2021F0812F902F937002C080E001
:1017500090E00E94F0174CC1812FBB2019F00E942D
:10176000FE2C02C00E94F12B0E94C72B41C1802F8A
:101770008370A1F5B1103AC1412F4295469547704B
:10178000440F440F212F2F7030E0C901042E01C0F7
:10179000880F0A94EAF714FF08C02FE030E001C078
:1017A000220F4A95EAF7209501C020E0302F3695A8
:1017B00036953370323069F040F44091290531306C
:1017C00019F0822B842302C0842B822B0E947B235E
:1017D0000DC1282B809129058227F8CFBB2019F055
:1017E000802F817001C08695882309F4FFC0412FA6
:1017F000429546954770440F440F212F2F7030E0DB
:10180000C901042E01C0880F0A94EAF714FF08C02A
:101810002FE030E001C0220F4A95EAF7209501C081
:1018200020E0302F369536953370323051F070F419
:101830004091B203313019F0822B842308C0842BED
:1018400005C0282B8091B203822701C0822B0E9401
:101850006023CCC0F02FFF70DF2EBB2039F08F2F1C
:101860000E947023812F0E94D623C0C0812F0E9426
:10187000CF238D2D0E946423B9C0123F11F128F4AB
:10188000103F41F0113FA9F189C0133F01F1143F0E
:1018900061F184C08091BB02BB2021F0C81608F022
:1018A000A1C003C08C1508F49DC0202F2F7181E0CA
:1018B00090E001C0880F2A95EAF79091B20389273A
:1018C0000FC0802F8F71BB2009F470C087C0BB2070
:1018D00051F081E0902F9F7101C0880F9A95EAF72F
:1018E0000E9460237FC080E0FBCF80917F0382FF56
:1018F00006C0802F8F71BB2009F470C057C0809143
:10190000B5028230A0F180910205BB20E1F00E9477
:10191000C930809105058770843039F40E94D63033
:10192000802F8F710E9464235CC08091B502C8161D
:1019300008F057C0202F2F71D22E822F0E947023C3
:1019400063E08D2D0DC00E94D0308091B502C81685
:1019500050F00E94D6300E94AF3164E0802F8F712A
:101960000E940F313EC081E00E94DD303AC0BB20B2
:1019700059F0302F3F71D32E832F0E94702363E0E4
:101980008D2D0E940F312EC081E00E94DD3041E09C
:101990004C1540F582E00E94DD3024C0BB2049F0A8
:1019A000CC2011F0812F3FCE802F8F710E947023A9
:1019B00019C0CC2089F0193329F48091B902909193
:1019C000BA0204C08091B7029091B8020E94781BBD
:1019D000812F0E94DD2306C0802F8F710E94642317
:1019E00001C0A12C88EF890D843010F40E941C18CE
:1019F000812F902F0E947F23811105C010927401C6
:101A00001092730125C0BB2019F0C110F7CF20C080
:101A1000C110F4CF20E0D7014C9111965C91119741
:101A200012966C91129713967C91139714968C9141
:101A30000E9405338091B60283FFE0CF809173014D
:101A4000909174010297D1F6812F0E948324D6CF02
:101A5000AA20A9F08091050580FD11C0F70112822E
:101A60008595859585950E947023C7010E94460340
:101A7000809105058595859585950E94642360E094
:101A8000C7010E942E332C960FB6F894DEBF0FBE0E
:101A9000CDBFDF91CF911F910F91FF90EF90DF901D
:101AA000CF90BF90AF909F908F907F906F905F90FE
:101AB0004F903F902F900895CF93DF93CDB7DEB72F
:101AC000E4970FB6F894DEBF0FBECDBF84B7877F13
:101AD00084BF0FB6F894A8958091600088618093C8
:101AE0006000109260000FBE90E080E80FB6F8949E
:101AF00080936100909361000FBE85B7806885BFB9
:101B000085B7806885BF86E69DE290936F018093DC
:101B10006E010E94A2290E9449290E94B8280E94B1
:101B20004B1C0E94D2200E94F1208091E200846030
:101B30008093E20078948091B1038823A1F0109102
:101B4000E9001F709091EC00892F817090FD80E872
:101B5000182B1092E9008091E80083FD0E94AC1DD3
:101B60001F701093E90082E084BD93E095BD9AEF69
:101B700097BD80936E000E94AE2B811102C00E941F
:101B80009F2B04E211E06AE2E62E61E0F62ED80116
:101B90008D918D018F3F11F00E94AB2DE016F10663
:101BA000B1F70AE211E05EE2E52E51E0F52EF80110
:101BB00081918F018F3F11F00E94AB2DE016F1064D
:101BC000B1F786E0EFE8F1E0DF01282F1D922A95BA
:101BD000E9F7E5E7F1E0DF011D928A95E9F780E09A
:101BE00090E00E942436893E9E4F21F40E94AE2B45
:101BF000811102C00E94393082E090E00E941C36C0
:101C000080937B010E94283090937F0380937E0312
:101C10000E94C22DEFEFF6E721E0E150F0402040B6
:101C2000E1F700C000000E94C22D80918F0180FF6B
:101C300008C06FEF7FEF80E090E00E9448360E947E
:101C40000C1783E090E00E941C360E947B2381E009
:101C500091E0909376038093750345E9242E41E04B
:101C6000342E8E010F5F1F4F8091B103853009F034
:101C700045C020E1E22E32E1F32E8091B1038530A0
:101C800009F038C08091B103843021F110927903BA
:101C900088E190E0A0E40FB6F894A89580936000E6
:101CA0000FBEA093600083B7817F846083BF83B73A
:101CB000816083BF7894889583B78E7F83BF0FB68A
:101CC000F894A895809160008861809360001092DC
:101CD00060000FBE8091A703882309F4CECF0E9435
:101CE000C22DEFE8F1E08191811169C62E163F0601
:101CF000D1F7C3CF0E94A9230E941C180E94C22DB5
:101D000081110E945217AFE8B1E0ECE7F1E0E12C5D
:101D1000F12C3E2D2D919191922721F180E0DD242F
:101D2000D394492F4D21D1F08BA73CA72D2181E0E1
:101D300009F480E08DA70E945E178160782F9FA72D
:101D40008EA74BA55CA56DA58FA50E943C33F7011E
:101D5000E458FE4F8081D826D0821BC08F5FDD0CF7
:101D60008430F9F62FEFE21AF20A36E0E316F104B6
:101D700081F68FEF88AB89AB1AAA0E945E1781604B
:101D8000782F9CAB8BAB48A959A96AA98CA90E9452
:101D90003C338091950290919602892B09F43EC0C4
:101DA00040918A0250918B0260918C0270918D0259
:101DB0002FB7F89480917A0390917B03A0917C03D4
:101DC000B0917D032FBF841B950BA60BB70B4091E1
:101DD000860250918702609188027091890284176F
:101DE0009507A607B707D0F08091950290919602CB
:101DF0000E94EA35109296021092950210928A0281
:101E000010928B0210928C0210928D021092860218
:101E100010928702109288021092890280910D011F
:101E200090910E01019669F1912C96E1892E20C0C6
:101E3000889EF001899EF00D1124ED53FD4FC2885C
:101E4000D388C114D10421F4C090B102D090B20261
:101E5000889E5001899EB00C1124C5018D539D4F61
:101E60007C01DC0116968C91169781110FC093941A
:101E7000892D90E020910D0130910E01281739072E
:101E8000BCF680911A01811113C03AC01D968D9144
:101E90009C911E970E944317C816D90640F7C701A8
:101EA0000E946F18C50187539D4F0E942818DFCFED
:101EB0008091840290918502009711F10E9443174E
:101EC0002091DE013091DF0128173907C8F4909185
:101ED000820280918302981759F00E94971A1092FB
:101EE000DF011092DE01109285021092840208C078
:101EF0000E94261A10928502109284020E94781A7B
:101F00008091B40280FF1EC08091190182FF1AC027
:101F10000E945E172091DA013091DB01AC01421B77
:101F2000530B20911701309118014217530750F0BD
:101F300022E831E041E0BC018091DC019091DD01BB
:101F40000E94831B86E0E3ECF3E0D80101900D9240
:101F50008A95E1F7C090C503D090C603E090C7030F
:101F6000F090C8031092C5031092C6031092C703E5
:101F70001092C803C11003C0DD2009F45DC0809138
:101F8000C1039091C2030E944317AC019091BD031D
:101F9000992339F02091150130E02417350758F0C6
:101FA0004BC020911601BAE02B9F900111242417F9
:101FB000350718F041C09F3F19F09F5F9093BD0314
:101FC000CC2061F00E94AF2C1C1414F491E001C0ED
:101FD0009FEF899F802D11248093C503DD2061F040
:101FE0000E94AF2C1D1414F491E001C09FEF899F53
:101FF000802D11248093C6033091C5033323E1F073
:102000002091C6032223C1F045EB3403C001112403
:10201000992319F09093C50303C081E08093C50311
:1020200035EB2303C0011124992319F09093C603C3
:1020300003C081E08093C603E11003C0FF2009F4D0
:102040005DC08091BF039091C0030E944317AC0113
:102050009091BC03992339F02091110130E02417AD
:10206000350758F04BC0209112018AE0289F90015B
:1020700011242417350718F041C09F3F19F09F5FC6
:102080009093BC03EE2061F00E94762C1E1414F491
:1020900091E001C09FEF899F802D11248093C70399
:1020A000FF2061F00E94762C1F1414F491E001C00F
:1020B0009FEF899F802D11248093C8033091C7031F
:1020C0003323E1F02091C8032223C1F045EB340310
:1020D000C0011124992319F09093C70303C081E034
:1020E0008093C70335EB2303C0011124992319F012
:1020F0009093C80303C081E08093C8038091C50317
:1021000081110BC08091C603811107C08091C70364
:10211000811103C08091C80381110E94C72BCB821B
:10212000DC82ED82FE8286E0F801A3ECB3E0019050
:102130000D928A95E1F70E941C1890918A018913EB
:1021400080938A018091B103843009F08DCD83E0C2
:102150008093E9008091E80082FF86CD8091E800BD
:1021600085FF21C00E94292281111BC080E2C82E58
:10217000D12C780109C08091F100D7018D937D01A8
:10218000B1E0CB1AD10869F08091E80085FDF3CF6A
:102190008091E8008B778093E8000E9429228823B1
:1021A00099F391E001C090E08091E8008B778093F3
:1021B000E800992309F458CDE090B701F090B801F8
:1021C0008981E114F10461F08E3F09F0F4C38A8142
:1021D000833008F4BBC18550833008F0ECC3B6C12E
:1021E0008B3009F49DC110F5853009F472C0B0F44C
:1021F0008230C1F130F4813009F0DBC31A8289E00A
:1022000006C3833009F458C0843009F0D2C34C812E
:102210006B818A810E948A289D83EEC3873009F4EE
:10222000C8C308F0C6C30E94D827C5C3803109F4CB
:10223000BBC060F48D3009F459C008F455C08E302D
:1022400009F458C08F3009F480C0B3C3823109F457
:10225000B1C008F4ACC0833109F4D5C08E3F09F495
:1022600075C1A7C38A81823009F4BFC3833051F09E
:10227000813009F09EC30E9452179B838C837D831B
:102280006E8399C38091B6049091B704892B09F4A9
:1022900092C380918F018B83809190018C83809178
:1022A00091018D83809192018E83809193018F8320
:1022B0008091940188877FC38A81823009F079C335
:1022C0006B817C818D819E810E9494360E947D2B42
:1022D00072C32D813E813227232732274C816B81A7
:1022E0008A810E94A22767C380E162C082E08A835C
:1022F00085E08DC2EA80FB80FE24EF24FE24AC80C2
:10230000B12CEDE1AE16B10408F055C36801C70168
:1023100085509E4F9601201B310B2A153B0508F076
:102320004AC3F5E0EF16F2E0FF0630F40E941C36D7
:10233000D60114968C9302C0F6011482FFEFEF1AB7
:10234000FF0A2FEFC21AD20AE2CF8091B604909111
:10235000B704892B09F42FC3EA80FB80FE24EF2405
:10236000FE24CC80D12C3DE1C316D10408F023C358
:102370005801C70185509E4F9501201B310B2C152C
:102380003D0508F018C345E0E41642E0F40628F4E1
:10239000D50114966C910E942A36BFEFEB1AFB0A06
:1023A000EFEFAE1ABE0AE5CF0E94BA1C04C384E068
:1023B0008A8301C3EA80FB80FE24EF24FE24AC80E4
:1023C000B12CFDE1AF16B10408F0F5C26801C701F8
:1023D00087969601201B310B2A153B0508F0EBC2AE
:1023E00020ECE216F10430F40E941C36D60114965B
:1023F0008C9302C0F6011482FFEFEF1AFF0A2FEF51
:10240000C21AD20AE4CFEA80FB80FE24EF24FE2425
:10241000AC80B12C3DE1A316B10408F0CCC240EC75
:10242000E416F10408F0C7C280EC90E08E199F0911
:102430008A159B0508F4BFC2370187E2680E711C3C
:102440008091B6049091B704892B11F068015FC0A8
:10245000E0FE0FC0C70186960E941C3690E0982FC0
:1024600088272D81822B81159C4531F48FEF8D8338
:1024700003C0C12CD12C03C0CC24C394D12CC701E0
:102480008A0D9B1D450180FF1BC0B1E08B1A91088E
:10249000E5E04E2E512C4C0E5D1E480C591CC3011C
:1024A0008A0D9B1D0E941C36F201208130E0322FE4
:1024B0002227282B21153C4519F48FEFD2018C934C
:1024C000F801EC0DFD1D2FEFCF01801B910B88153E
:1024D000990508F0BBCF848190E0982F882735813B
:1024E000832B81159C4511F4248325833296ECCFF0
:1024F000E0ECEE16F10428F4D60114966C910E94DB
:102500002A36BFEFEB1AFB0AEFEFCE1ADE0AC7013D
:1025100087969601201B310B2A153B0548F34BC2C9
:102520008091B6049091B704892B09F444C2C80184
:102530000E948822FFEF21EE34E0F150204030402D
:10254000E1F700C000000E940C1735C2EA818E2F0F
:1025500090E08E30910508F02EC2FC01EE59FF4F3D
:102560000C948E3688E0ECE1F1E0DE01919601906A
:102570000D928A95E1F780E2D8011D928A95E9F7DC
:1025800085E0898388E0FE01B196DE011596E6C1FB
:1025900084E0898381E08A831B821C820CC28C8147
:1025A00090E0982F88272B81820F911D092E000C17
:1025B000AA0BBB0B65E0880F991FAA1FBB1F6A956A
:1025C000D1F7AC01BD01405E5F4F6F4F7F4F4817A1
:1025D00059076A077B0708F4EEC18430E1E09E07E3
:1025E000A105B10508F0E7C14530F1E05F076105DD
:1025F000710520F044E051E060E070E0481B590BA9
:10260000BC016E5F7E4FC8010E940336D4C140E218
:1026100050E06FEF70E0C8010E94B1368091B604BF
:102620008983EA8285E08B831C828D8383E0E4C109
:1026300081E090E09093B8018093B70182E390E04D
:1026400090938E0180938D010E945E1790938C0170
:1026500080938B01B0C1EF2899F1F0909401F3FAC7
:10266000882780F9F82280918B0190918C010E943B
:10267000431785369105F0F0FF20E1F00E945E17C8
:1026800090938C0180938B0180918D0190918E01AC
:10269000019790938E0180938D01892B89F410927C
:1026A000B8011092B70181E090E09093B704809355
:1026B000B60406C082E390E090938E0180938D0172
:1026C0008091B60489838091B7018A8380918D01BE
:1026D0009EC01092B7041092B6046DC1EB80FC80CE
:1026E00040E250E06FEF70E0C8010E94B13626E092
:1026F00032E0A2E0B3E080E090E0AC014E5F5F4FDB
:102700004132510508F057C1F90165917491E616FF
:10271000F70630F4F801E80FF91F71836083CA01EE
:10272000245F3F4FA217B30741F745C14B815C813E
:1027300022E033E086E092E0FC0165917491641739
:10274000750729F00C9628173907B1F732C10097A1
:1027500009F42FC1FC0136962591349121153105DC
:1027600009F427C14FE150E0BE016E5F7F4FF901D0
:10277000099520C12B813C8182E093E046E0E42E64
:1027800042E0F42EF701459154914217530739F076
:10279000FCE0EF0EF11C8E159F05A1F70AC1E114B4
:1027A000F10409F406C1F7013896259134912115F9
:1027B000310509F4FEC04CE150E0BE016B5F7F4F74
:1027C000C701F9010995009709F0F4C0F7013A969D
:1027D00085919491009711F0FC01099580E0EAC081
:1027E0000E94721CE8C0EB818E2F90E0873091052B
:1027F00008F0E1C0FC01E059FF4F0C948E3680E2F6
:10280000D8011D928A95E9F788E089838A838B83B2
:10281000D2C08C819AE0F92E6E01B1E2CB0ED11CB0
:10282000F6012F2D11922A95E9F7B6010E948D2706
:102830008983F601DE01129601900D92FA94E1F778
:10284000BAC0FC808AE0FE013596DE0191960190C7
:102850000D928A95E1F789A19AA10E946D2B9AA306
:1028600089A38BA19CA10E946D2B9CA38BA38DA1FE
:102870009EA10E946D2B9EA38DA38FA198A50E945F
:102880006D2B98A78FA337E03F1570F04AE0F49EB8
:10289000B0011124655F7E4F4AE050E0CE01819681
:1028A0000E944E3680E001C08FEF89830E94A229EA
:1028B00082C06C81CE0181962AE0DC011D922A95AE
:1028C000E9F7683008F043C0BAE06B9FB00111240B
:1028D000655A7E4F36C0FC808AE0FE013596DE01E7
:1028E000919601900D928A95E1F789A59AA50E948B
:1028F0006D2B9AA789A7E7E0EF1570F0FAE0FF9E2D
:10290000B0011124655A7E4F4AE050E0CE01819615
:102910000E944E3680E001C08FEF89830E944929D2
:102920004AC06C81CE0181962AE0DC011D922A9575
:10293000E9F7683060F4BAE06B9FB0011124655587
:102940007E4F4AE050E00E940C3680E001C08FEFDD
:1029500089838AE0FE01B196DE01129601900D9204
:102960008A95E1F728C0FC808AE0FE013596DE01F9
:10297000919601900D928A95E1F78BA19CA10E94FE
:102980006D2B9CA38BA3E7E0EF1570F0FAE0FF9EA0
:10299000B001112465557E4F4AE050E0CE0181968A
:1029A0000E944E3680E001C08FEF89830E94B828D4
:1029B00002C08FEF8983C8010E94882255C9E9BCF3
:1029C000F9BC09B400FEFDCF8091D8008F7D8093C3
:1029D000D8008091E00082608093E0008091E00068
:1029E00081FDFCCF0E94A92348C986E290E00E94A5
:1029F0001C361B821C821D828E83DDCF8091850355
:102A00000895AF92BF92CF92DF92EF92FF920F9311
:102A10001F93CF93DF934430510508F46CC040916D
:102A20007E0341FBCC24C0F8D12CCC0CDD1C42FB36
:102A3000882780F9C82FE0E0DE2FCC0FDD1FCC0FF8
:102A4000DD1FCC2ADD2A40FBEE24E0F8F12CEC2837
:102A5000FD2843FBAA27A0F9B0E023E0AA0FBB1F83
:102A60002A95E1F7EA2AFB2A44FBEE27E0F9F0E099
:102A700034E0EE0FFF1F3A95E1F7EE29FF2945FB01
:102A8000222720F930E055E0220F331F5A95E1F755
:102A90002E2B3F2B46FB882780F990E0E6E0880F3D
:102AA000991FEA95E1F7822B932B47FB442740F9C6
:102AB00050E05695542F442757954795842B952BD6
:102AC00020917F03322F3170132F00E0082B192B38
:102AD00026952170B22EBB0CA12C0A291B29012E90
:102AE000000C220B330BFB01008311832283338301
:102AF00080E090E002C08FEF9FEFDF91CF911F91B8
:102B00000F91FF90EF90DF90CF90BF90AF9008951E
:102B1000E9E9F2E0848195812AE030E0B9010E9480
:102B200066366093160186818093150182858093B5
:102B3000140184858093130186859785B9010E94CD
:102B40006636609312018089809311018289809397
:102B50001001848980930F010895809199029091CA
:102B60009A029093180180931701089524E020930E
:102B7000E9002FEF3091E800215035FD06C035ED1A
:102B80003A95F1F700002111F5CF2091E80025FFDB
:102B90000BC040E050E066E070E00E945C22809153
:102BA000E8008E778093E8000895CF93DF9320911B
:102BB0001B01222339F020917E0327FF03C060E22E
:102BC00024E002C068E021E02093E9002FEF30917B
:102BD000E800215035FD06C035ED3A95F1F70000CB
:102BE0002111F5CF2091E80025FF1DC0EC01809157
:102BF0001B01811105C040E050E068E070E003C0B7
:102C000070E040E050E0CE010E945C228091E8003C
:102C10008E778093E80080E2FE01A6E8B3E00190A1
:102C20000D928A95E1F7DF91CF910895CF92DF92CF
:102C3000EF92FF924430510508F46FC0FB01C08051
:102C4000D180E280F3800E94A92380917E03C0FAA4
:102C500080F9B701A601769567955795479540FB92
:102C600081F9B701A60122E07695679557954795BA
:102C70002A95D1F740FB82F9B701A60133E076959A
:102C80006795579547953A95D1F740FB83F9B7017A
:102C9000A601E4E07695679557954795EA95D1F7B3
:102CA00040FB84F9B701A601F5E076956795579545
:102CB0004795FA95D1F740FB85F9B701A601A6E043
:102CC0007695679557954795AA95D1F740FB86F974
:102CD000B701A601B7E07695679557954795BA95E0
:102CE000D1F740FB87F980937E0380917F03D0FA70
:102CF00080F999E0F694E794D794C7949A95D1F720
:102D0000C0FA81F980937F0380917E0390917F03C5
:102D10000E941B3080E090E002C08FEF9FEFFF9099
:102D2000EF90DF90CF9008959C01CA01F90132968F
:102D3000459154918417950750F0CB01F9013496D1
:102D4000659174910E94A83680E090E008958FEF1D
:102D50009FEF08950F931F93CF93DF9309E912E03C
:102D6000C7EED0E0CE010E941C36F80161918F01C0
:102D7000681719F0CE010E942A362196CB30F1E077
:102D8000DF0781F7DF91CF911F910F910895DA014D
:102D90009C012E5F3F4FF90145915491F901259116
:102DA0003491A217B30758F0FC01349685919491A1
:102DB0000E94A8360E94AA1680E090E008958FEF46
:102DC0009FEF089580938003709382036093810343
:102DD0008091B1038430F9F48093E9008FEF9091F2
:102DE000E800815095FD06C095ED9A95F1F7000039
:102DF0008111F5CF8091E80085FF0DC040E050E0E3
:102E000063E070E080E893E00E945C228091E8003B
:102E10008E778093E800089587E797E790930108FD
:102E2000809300089AE088E10FB6F894A895809303
:102E300060000FBE90936000FFCF78941F920F92B6
:102E40000FB60F9211248F939F93AF93BF938091EE
:102E50007A0390917B03A0917C03B0917D0301964E
:102E6000A11DB11D80937A0390937B03A0937C03F3
:102E7000B0937D03BF91AF919F918F910F900FBE43
:102E80000F901F9018959C014FB7F89480917A038A
:102E900090917B03A0917C03B0917D034FBF821B77
:102EA000930B08952FB7F89460917A0370917B0388
:102EB00080917C0390917D032FBF08952FB7F894E4
:102EC00080917A0390917B03A0917C03B0917D0364
:102ED0002FBF08951F920F920FB60F9211248F9358
:102EE0009F93AF93BF9380917903811113C0809119
:102EF0007A0390917B03A0917C03B0917D0341966E
:102F0000A11DB11D80937A0390937B03A0937C0352
:102F1000B0937D03BF91AF919F918F910F900FBEA2
:102F20000F901F90189520911B012223C9F020912A
:102F30007E0327FF15C0262F2695269526952E3130
:102F4000C8F4FC01E20FF11D677081E090E001C060
:102F5000880F6A95EAF78095928189238283089584
:102F6000FC0106962281621301C012823196E81795
:102F7000F907C1F7089520911B012223C1F0209188
:102F80007E0327FF14C0262F2695269526952E31E1
:102F900030F5FC01E20FF11D677081E090E001C0A7
:102FA000880F6A95EAF79281892B82830895FC0144
:102FB00032962FEF30E04191641789F02F3F19F4DA
:102FC000411101C0232F3F5F3630A9F72F3F39F061
:102FD000FC01E20FF11D27FDFA9562830895089523
:102FE00020917703309178032817390771F0909377
:102FF000780380937703E0917503F091760330971F
:1030000021F00084F185E02D099408952091730347
:10301000309174032817390771F0909374038093EB
:103020007303E0917503F0917603309721F00680E9
:10303000F781E02D09940895E0917503F0917603EE
:10304000309721F00190F081E02D099480E00895FF
:10305000EF92FF920F931F93CF93DF93FC01228592
:10306000211136C0EC01E380F480F7E5FF1A26E178
:103070002E9DC0012F9D900D1124DC01AD53BD4F3D
:103080001496ED91FC91159787539D4F309729F039
:1030900054966D917C915597099586E18E9D80019E
:1030A0008F9D100D11240D531D4FF80187810E9433
:1030B000C930F80180850E94C2300E943F311882D9
:1030C00019861B861E821D821092C2021092C102B6
:1030D000DF91CF911F910F91FF90EF900895CF93C3
:1030E000DF93FC012189211119C0EC0181E0818B62
:1030F00087810E94D0309091C0028885892B80936F
:10310000C0020E943F31EA81FB81CE0106963097D2
:1031100029F06C897D89DF91CF910994DF91CF915E
:1031200008950F931F93CF93DF93C42FD22FFC01E9
:1031300082818823C9F04093BF020E945E1790935A
:10314000BE028093BD0280E28C0F883008F05BC025
:10315000C77081E001C0880FCA95EAF7DF91CF916F
:103160001F910F910C94D6238091BF02481334C055
:103170008091BD029091BE020E9443172091B1023E
:103180003091B2028217930738F510E21D0FCD1768
:10319000B9F080E28C0F883040F4C77081E001C044
:1031A000880FCA95EAF70E94CF23183028F581E0EE
:1031B0009D2F977001C0880F9A95EAF70E94D62339
:1031C000802F0E9483241830F0F4D77081E001C072
:1031D000880FDA95EAF70AC080E28C0F883098F4FD
:1031E000C77081E001C0880FCA95EAF7DF91CF91DF
:1031F0001F910F910C94CF23802FDF91CF911F91BE
:103200000F910C948324DF91CF911F910F9108951A
:10321000CF93DF93EC0140918E0250918F02609129
:103220009002709191022FB7F89480917A03909157
:103230007B03A0917C03B0917D032FBF841B950B72
:10324000A60BB70B843F9140A105B105A8F480916E
:103250008E0290918F02A0919002B0919102809382
:103260008A0290938B02A0938C02B0938D0284EF1C
:1032700091E0A0E0B0E00EC00E94521760938A0275
:1032800070938B0280938C0290938D0282E390E086
:10329000A0E0B0E08093860290938702A09388021A
:1032A000B0938902D0939602C0939502DF91CF919B
:1032B0000895FF920F931F93CF93DF93009197028E
:1032C000109198020115110509F45CC01092960244
:1032D000109295021092920210929302D8011696C3
:1032E0006D917C9117979B013A9521153F4108F408
:1032F000707EC62FD1E0611101C0D0E0F82ED80158
:103300001996ED91FC911A97309739F01B966D91B3
:103310007C911C9780E00995D823DD2379F08CEF10
:103320008C0F813A30F46C2F85E991E00E9493175D
:1033300005C00E943F318C2F0E94DD23E09197024F
:10334000F091980240815181FF2071F0808584FDC9
:103350000BC080919402882339F091E09A012150AA
:103360003109253A3D4508F090E090FF03C0CA01BD
:103370000E9408190E943F31109298021092970201
:1033800010929402C801DF91CF911F910F91FF908D
:103390000895FC0184818623C1F492819923B9F0B8
:1033A0008085692383FF04C081E0611111C00DC0D5
:1033B000892F8F7092959F70982B862F8F706295B2
:1033C0006F70682B81E0961719F080E0089581E016
:1033D0000895452B41F06F3F41F491E08F3F09F094
:1033E00090E0892F03C081E001C080E081700895E2
:1033F000BC014091820280918302942F981729F199
:10340000292F30E0F901EE0FFF1FE658FD4F019024
:10341000F081E02DE617F70799F487E0869FF00129
:10342000879FF00D1124EE5BFD4F81E084839413A0
:103430000CC02F5F3F4F23703327209382020895E3
:103440002F5F3F4F922F9370D9CF0895EF92FF9245
:103450000F931F93CF93DF938091E101882309F4A9
:1034600040C00091E0018CE0F82E8091E101081746
:10347000A0F5EE24E394E00EE092E00110E0F09E6F
:10348000E001F19ED00D1124CE51DE4F4B815C81C5
:10349000698188810E94E91981111DC08E819F81F7
:1034A000892B21F488859985019651F428813981E9
:1034B0004A815B816C817D818E819F810E9406277C
:1034C000F09EF001F19EF00D1124EE51FE4F14829A
:1034D00013821092C0020E2DC8CF1092E1011092FB
:1034E000E001DF91CF911F910F91FF90EF90089530
:1034F0001092DF011092DE01E2E4F2E08581811199
:1035000002C014821682379682E0EA37F807B1F7D4
:103510000895109285021092840210921A018091EF
:103520008302809382020E94781A0C94261A3F929A
:103530004F925F926F927F928F929F92AF92BF92C3
:10354000CF92DF92EF92FF920F931F93CF93DF936F
:10355000C091820297E0892E01E010E02CE0322E2B
:103560003EEF932E4424439480918302C81709F4BC
:1035700078C0D0E0FE01EE0FFF1FE658FD4F8081BE
:103580009181889ED001899EB00D1124AE5BBD4F04
:1035900014962C911497211161C05090E101E2EE34
:1035A000F1E020E030E0712C5D01251508F054C0F9
:1035B000E284F384D501CD90DC906FEF7FEF612C36
:1035C000462D50E0DA01AA0FBB1FAC0DBD1D0D90BA
:1035D000BC91A02D109731F0EA16FB0609F4BA0150
:1035E0006394EECF6F3FBFEF7B0791F1D80102C02C
:1035F000AA0FBB1F6A95E2F77A2AB80102C0660FCC
:10360000771F6A94E2F7AB0141505109672D70E0D2
:1036100046175707D9F4329EF001339EF00D11245E
:10362000EE51FE4F889ED001899EB00D1124AE5BF5
:10363000BD4F12962D913C9113973783268390822C
:1036400091829187808715964C9206C014821382CE
:103650002F5F3F4F3C96A9CF0E94F8192196C37067
:1036600083CF0E94261ADF91CF911F910F91FF9077
:10367000EF90DF90CF90BF90AF909F908F907F9012
:103680006F905F904F903F900C94781A8091190141
:10369000877F8093190182E00E94C23080911901D6
:1036A00084FF06C08F7E8093190182E00E94D03093
:1036B0008091190185FF06C08F7D8093190180E2FA
:1036C0000E94D0300C943F31662329F02091C00233
:1036D00022602093C0029C013056211540E234073D
:1036E00020F0305E2115304108F499270C94EA351A
:1036F000009741F0EFE9FFE03197F1F700C00000DB
:103700000197F6CF0895AF92BF92CF92DF92EF92DA
:10371000FF920F931F93CF93DF935C017B01C42E25
:1037200089018091190182FF8DC0C091DC01D09187
:10373000DD01CA15DB0521F0A114B10409F082C036
:10374000809119018B7F8093190181FD11C08091B7
:10375000DA019091DB01A701481B590B81E0209110
:103760001701309118014217530718F480E001C087
:1037700081E08170D82E80911901D0FA81F980936F
:103780001901FE01FF2784E0F695E7958A95E1F798
:103790009E012F703327EE0FFF1FE654FE4F81E08E
:1037A00090E002C0880F991F2A95E2F7DD2029F0EA
:1037B00020813181822B932B06C0809590952081AA
:1037C000318182239323918380838091B90181FF8A
:1037D00008C08091190180618093190182E00E94E4
:1037E000C9308091B90185FF08C0809119018062BC
:1037F0008093190180E20E94C930A8016D2DCE018D
:103800000E94641BCC2031F08091B40285FF02C07D
:1038100086FF36C08091B7029091B8020E94781B53
:103820008091DC019091DD019C013056211540E230
:10383000340720F0305E2115304108F499270E94AA
:10384000D03518C095013327C5019056811540E247
:10385000940720F0905E8115904110F4C90101C0D9
:10386000C5010E94D0358091DC019091DD01A81640
:10387000B90611F40E94461BF092DB01E092DA01D6
:10388000DF91CF911F910F91FF90EF90DF90CF903C
:10389000BF90AF9008950F931F93CF93DF9309E9E3
:1038A00012E0C7EED0E0CE010E941C36F8018193F1
:1038B0008F012196CB30F1E0DF07A9F7C0E0D0E01F
:1038C000FE01E05FFD4F85919491009711F0FC019E
:1038D00009952C96CC3FD10599F7DF91CF911F9197
:1038E0000F910895E9E9F2E0128E138E8FEA90E0CD
:1038F0009183808325E0248F88E893E193838283FA
:103900008AE090E09583848344E150E057834683C6
:1039100068E070E071876087938782874EE150E0AE
:10392000558744879787868740E550E0518B408BC9
:10393000738B628B68E270E0758B648B62E370E07E
:10394000778B668B68EC70E0718F608F158E978F28
:10395000868F51A340A322A30E94AA160E94A923E6
:1039600010927F0310927E0380E090E00E941B3053
:103970000C944B1CCF93DF93CBEFD1E060E0CE01F2
:103980000E942A362196C11584E0D807B9F7DF9145
:10399000CF910895462F2091B7013091B801232B84
:1039A00091F47E3F39F46E3F71F48091B5019091AE
:1039B000B6010895843038F4763028F4643018F471
:1039C000672F0C948A2880E090E008958091A903E5
:1039D00087FF11C08091E80082FD05C08091B1038E
:1039E0008111F8CF11C08091E8008B770BC08091D6
:1039F000B103882349F08091E80080FFF8CF8091DF
:103A0000E8008E778093E8000895982F973068F546
:103A10009093E900981739F07091EC002091ED0037
:103A20005091F00003C0242F762F50E021FD02C0FA
:103A30009F5FECCF3091EB003E7F3093EB003091F5
:103A4000ED003D7F3093ED003091EB00316030931D
:103A5000EB007093EC002093ED005093F000209168
:103A6000EE0027FDE5CF80E008958F708093E90098
:103A700081E008952091AF033091B00326173707F6
:103A800048F06115710539F42091E8002E772093F4
:103A9000E80001C0B901FC0120E06115710579F170
:103AA0008091B1038823F1F18530F1F18091E80034
:103AB00083FD3CC08091E80082FD2EC08091E8002B
:103AC00080FFEBCF2091F3008091F20090E0922BE9
:103AD0006115710551F08830910538F421912093DA
:103AE000F100615071090196F3CF21E0089709F0C8
:103AF00020E08091E8008E778093E800CECF2111FE
:103B0000CFCF0AC08091B103882361F0853061F086
:103B10008091E80083FD0AC08091E80082FFF2CF27
:103B200080E0089582E0089583E0089581E008959B
:103B30000895BC0184E00C94E216BC0183E00C946F
:103B4000E2168091B203982F9670963011F4886037
:103B500001C0877F0C9460231F93CF93DF93CDB771
:103B6000DEB7AA970FB6F894DEBF0FBECDBFE9EA65
:103B7000F3E081EB93E02091F10021938E179F07F2
:103B8000D1F78091AA03833009F463C030F4813007
:103B900071F0823009F49DC0B4C08A3009F489C044
:103BA0008B3009F46EC0893009F0ABC020C0809121
:103BB000A903813A09F0A5C08091E800877F80932E
:103BC000E8008091AD039091AE03892B21F460E26F
:103BD00086E893E003C060E080E090E070E00E943F
:103BE0003A1D8091E8008B778093E8008AC080912D
:103BF000A903813209F085C08091AD039091AE0395
:103C0000009719F0029709F07CC08091E800877F47
:103C10008093E8008091E80082FD05C08091B103A7
:103C20008111F8CF6EC02091F3008091F20090E0F6
:103C3000922B029731F48091F100813011F086309F
:103C400021F48091F100809385038091E8008B77C7
:103C500054C08091A903813A09F053C08091AD030B
:103C60009091AE03892B09F04CC08091E800877FCA
:103C70008093E8008091E80080FFFCCF80911B01D9
:103C800037C08091A9038132E1F58091AD03909115
:103C9000AE03892BB1F58091E800877F8093E8001F
:103CA0000E94E61C8091AB0380931B010E94A92314
:103CB00028C08091A903813221F58091E800877F97
:103CC0008093E8000E94E61C8091AC0380938403FB
:103CD00018C08091A903813AA1F48091E800877F00
:103CE0008093E8008091E80080FFFCCF80918403FE
:103CF0008093F1008091E8008E778093E8000E9425
:103D0000E61C8091E80083FFEBC18091A9039091AC
:103D1000AA03492F50E04A30510508F0E1C1FA01E9
:103D2000E958FF4F0C948E36803821F0823809F024
:103D3000D7C108C08091A6039091A703992389F069
:103D400082600FC08091AD038F70873008F0C8C1CA
:103D50008093E9008091EB0085FB882780F9109221
:103D6000E9009091E800977F9093E8008093F1003C
:103D70001092F1007CC1282F2D7F09F0B1C188235A
:103D800019F0823061F0ACC18091AB03813009F051
:103D9000A7C1933009F080E08093A7032EC08091E3
:103DA000AB0381112AC08091AD038F702FEF280FD4
:103DB000263008F095C18093E9002091EB0020FFA8
:103DC0001CC0933021F48091EB00806214C090916C
:103DD000EB0090619093EB0021E030E0A90102C07C
:103DE000440F551F8A95E2F74093EA001092EA00CB
:103DF0008091EB0088608093EB001092E900809145
:103E0000E800877F8093E8000E94E61C69C1811169
:103E100067C11091AB031F778091E3008078812BFD
:103E20008093E3008091E800877F8093E8000E9400
:103E3000E61C8091E80080FFFCCF8091E300806861
:103E40008093E300111102C082E001C083E08093FF
:103E5000B10346C18058823008F042C12091AB03C3
:103E60003091AC032C3D53E0350779F583E08A832C
:103E70008AE289834FB7F894DE01139620E03EE092
:103E800051E2E32FF0E050935700E49120FF03C08C
:103E9000E295EF703F5FEF708E2F90E0EA3010F008
:103EA000C79601C0C0968D939D932F5F243149F72B
:103EB0004FBF8091E800877F8093E8006AE270E05E
:103EC000CE0101960E943A1DC0C08091AD03909131
:103ED000AE03432F552743305105B1F068F441300C
:103EE000510509F40CC14230510509F0F9C08BE5C8
:103EF00090E0E0E2F4E057C04132510589F14232EE
:103F0000510509F43CC0ECC0C901992781309105E5
:103F1000B9F070F082309105D9F0039709F0E0C054
:103F2000EDE8F4E0E4918E2F90E0EDE8F4E038C0A5
:103F3000E9EDF4E0E4918E2F90E0E9EDF4E030C09B
:103F4000EFEBF4E0E4918E2F90E0EFEBF4E028C08B
:103F5000EBEAF4E0E4918E2F90E0EBEAF4E020C08D
:103F60008330910508F0BCC0880F991FFC01E95C03
:103F7000FE4F0190F081E02D89E090E014C0833085
:103F8000910508F0ADC0FC01EE0FFF1FEF5CFE4F86
:103F90000190F081E02DDC01A25DBE4F8C9190E09C
:103FA000009709F49DC02091E800277F2093E80046
:103FB0002091AF033091B0032817390708F4C901E5
:103FC00040E0009789F12091B103222309F43DC01C
:103FD0002530D9F12091E80023FD37C02091E80079
:103FE00022FD2FC02091E80020FFEBCF4091F3008D
:103FF0002091F20030E0342B009759F02830310541
:1040000040F444914093F100319601972F5F3F4F68
:10401000F3CF41E02830310509F040E02091E8007D
:104020002E772093E800CDCF4111CDCF0AC08091EB
:10403000B103882351F0853041F08091E80083FD81
:1040400004C08091E80082FFF2CF8091E8008B7776
:104050008093E80045C0803809F042C08091E800B4
:10406000877F8093E8008091A8038093F10080917E
:10407000E8008E77C7CE811133C08091AB03909159
:10408000AC039927029764F58091E800877F8093BD
:10409000E8001091AB031093A8030E94E61C1111D5
:1040A00006C08091E30087FD02C081E001C084E08A
:1040B0008093B10342E061EC81E00E94051D42E281
:1040C00061EC84E00E94051D42E261EC82E00E9406
:1040D000051D42E260EC83E00E94051D8091B10362
:1040E0008091E80083FF10C08091E800877F809373
:1040F000E8008091EB0080628093EB0005C082E1D4
:1041000090E0EBE7F4E04FCFAA960FB6F894DEBF4D
:104110000FBECDBFDF91CF911F9108951F920F92D7
:104120000FB60F9211242F933F934F935F936F938A
:104130007F938F939F93AF93BF93CF93DF93EF932F
:10414000FF93C091E900CF708091EC00D82FD1701F
:1041500080FDD0E81092E9008091F000877F809385
:10416000F00078940E94AC1D1092E9008091F0005C
:1041700088608093F000CD2BCF70C093E900FF9151
:10418000EF91DF91CF91BF91AF919F918F917F91EF
:104190006F915F914F913F912F910F900FBE0F90B4
:1041A0001F901895E8EDF0E080818E7F808310925B
:1041B000E2001092DA001092E100A0EEB0E08C91E3
:1041C00081608C9380818F77808319BCA7EDB0E0EC
:1041D0008C918E7F8C9380818F7E8083109283035D
:1041E0000895CF92DF92EF92FF920F931F93CF9398
:1041F000DF93C8EDD0E088818F7E8883E7EDF0E023
:1042000080818160808384E082BF81E0809383032A
:1042100088818E7F888302EE10E0F8011082109270
:10422000DA0081EEC82ED12CF601108288818F77BA
:10423000888388818068888388818F7D888319BC82
:104240001092B1031092A8031092A7031092A60334
:1042500090EEE92EF12CF70180818B7F808388819D
:104260008160888342E060E080E00E94051DF601E5
:1042700080818E7F8083F80180818160808380814E
:1042800088608083F70180818E7F80838881806150
:104290008883DF91CF911F910F91FF90EF90DF9076
:1042A000CF9008951F920F920FB60F9211242F9363
:1042B0003F934F935F936F937F938F939F93AF93AE
:1042C000BF93EF93FF938091E10082FF09C080913B
:1042D000E20082FF05C08091E1008B7F8093E100C6
:1042E0008091DA0080FF2AC08091D80080FF26C02C
:1042F0008091DA008E7F8093DA008091D90080FF70
:1043000018C080E189BD82E189BD09B400FEFDCFFE
:1043100081E08093B1038091830381110FC00E94DB
:10432000D2200E94F1208091E20084608093E2001C
:1043300005C019BC1092B103109283038091E10073
:1043400080FF17C08091E20080FF13C08091E200DF
:104350008E7F8093E2008091E20080618093E20092
:104360008091D80080628093D80019BC85E080934A
:10437000B1038091E10084FF30C08091E20084FFAE
:104380002CC080E189BD82E189BD09B400FEFDCF6A
:104390008091D8008F7D8093D8008091E1008F7E3E
:1043A0008093E1008091E2008F7E8093E200809113
:1043B000E20081608093E2008091A803882311F0DD
:1043C00084E007C08091E30087FD02C081E001C066
:1043D00083E08093B1038091B1038091E10083FF7A
:1043E00027C08091E20083FF23C08091E100877F96
:1043F0008093E10082E08093B1031092A803809142
:10440000E1008E7F8093E1008091E2008E7F8093B7
:10441000E2008091E20080618093E20042E060E08F
:1044200080E00E94051D8091F00088608093F0007C
:10443000FF91EF91BF91AF919F918F917F916F917C
:104440005F914F913F912F910F900FBE0F901F9052
:1044500018952091E4003091E50095E64091EC003C
:10446000842F817040FF23C08091E80080FD1DC033
:104470008091B103882399F0853099F08091EB0009
:1044800085FD11C04091E4005091E50024173507E7
:1044900029F3915011F09A01E1CF84E0089582E070
:1044A000089583E0089581E0089580E008954091A3
:1044B000E80042FFDDCF0895EF92FF920F931F9324
:1044C000CF93DF937C018B010E942922811119C0B7
:1044D000E70101151105A1F08091E80085FD0AC0F2
:1044E0008091E8008E778093E8000E94292288233B
:1044F00081F307C089918093F10001501109E9CF40
:1045000080E0DF91CF911F910F91FF90EF90089580
:10451000CF932091B1032430F9F4C091E900CF701A
:104520003091EC00232F217030FD20E8C22B22E0D7
:104530002093E9002091E80020FF0BC040E050E00C
:1045400060E270E00E945C228091E8008E778093A8
:10455000E800CF70C093E900CF91089580E090E02B
:104560000E94061880E090E00E94F0171092C002AE
:104570000E943F31E3ECF3E086E0DF011D928A9573
:10458000E9F71092BD031092BC031092BE030C9485
:10459000C72BCF92DF92FF920F931F93CF93DF939E
:1045A0006C010091B20380912905082BC7E0D0E08F
:1045B00010E0C8010C2E02C0959587950A94E2F789
:1045C00080FD04C02197A8F7F12C09C0FC2EB6018C
:1045D0008C2F0E94CA1C0E94812E019799F38F2D67
:1045E000DF91CF911F910F91FF90DF90CF900895B1
:1045F000CF93DF93EC010E94C922BE010E94CA1C26
:104600000E94812EDF91CF9108959E3F59F1990F1D
:10461000990F890F682F669566956695982F977004
:1046200083E0689FB001112440E050E080E0FB018E
:10463000E40FF51FED54FC4F208130E0092E02C03D
:10464000369527950A94E2F721703327042E01C08E
:10465000220F0A94EAF7822B4F5F5F4F43305105D8
:1046600031F7089580E008959E3F49F1990F990F21
:10467000890FE82FE695E695E695877051E001C031
:10468000550F8A95EAF783E0E89FF0011124ED5475
:10469000FC4F20E030E070E04081CB01022E02C0F0
:1046A000969587950A94E2F78170819584278523F2
:1046B000842781932F5F3F4F2330310569F7089599
:1046C0008093B2030C94AE2221E030E001C0220FAF
:1046D0008A95EAF720958091B20382230C94602397
:1046E00021E030E001C0220F8A95EAF78091B20301
:1046F000822B0C946023809329050C94AE22929512
:104700009F70963079F010F4925001C09A50923018
:1047100068F4803F69F018F4883E40F409C0843F93
:1047200029F406C0883E20F0813F11F080E0089512
:1047300081E00895FC0186819781009719F00E941D
:10474000812E04C0808191810E94F8220E947F23E3
:1047500008951092B90180911B01882331F0809156
:104760007E0387FF02C08EE101C086E0E7E9F1E049
:10477000DF011D928A95E9F70C94AE22882321F07F
:104780000E94C2300C943F310895882339F09091F3
:10479000C002892B8093C0020C943F310895882376
:1047A00021F00E94C9300C943F310895882321F0F4
:1047B0000E94D0300C943F310895882379F19CEF0A
:1047C000980F913A30F4682F85E991E00E94931791
:1047D0000DC090E2980F983058F4877091E001C0B6
:1047E000990F8A95EAF7892F0E94C9300C943F31BE
:1047F0009BE5980F933020F480E090E00C9406182D
:1048000098E5980F973120F480E090E00C94F01731
:10481000803F20F00E94F12B0C94C72B0895CF937A
:10482000882309F46EC0C82F8CEF8C0F813AC0F535
:1048300080911B018823E1F080917E0387FF18C0DF
:10484000EC2FE695E695E695F0E0EB56FE4F82817B
:10485000282F30E04C2F477081E090E002C0880F95
:10486000991F4A95E2F782239323892B61F412C0A2
:10487000E7E9F1E08DE991E02191C21721F08E176F
:104880009F07D1F707C06C2F85E991E00E9493172D
:104890000E943F316C2F85E991E00E94BB170CC04C
:1048A00080E28C0F883058F4C77081E001C0880F17
:1048B000CA95EAF70E94D030CF910C943F31EBE5D6
:1048C000EC0FE33040F4F0E0E35CFE4F808190E0D9
:1048D000CF910C940618E8E5EC0FE73150F4F0E0C6
:1048E000EE0FFF1FE05CFE4F80819181CF910C9411
:1048F000F017C03F30F08C2F0E94FE2CCF910C940B
:10490000C72BCF9108951F93CF93DF93182F89332F
:1049100029F4C091B902D091BA0204C0C091B70283
:10492000D091B802812F0E940F24209741F08FE987
:104930009FE00197F1F700C000002197F6CF812F8B
:10494000DF91CF911F910C94DD232F923F924F92D4
:104950005F926F927F928F929F92AF92BF92CF920F
:10496000DF92EF92FF920F931F93CF93DF93CDB718
:10497000DEB765970FB6F894DEBF0FBECDBF8C01D2
:1049800085E0F801DE01519601900D928A95E1F7DC
:10499000D8014C9011965C9011971296EC9012975A
:1049A0001396CD90DC90149760E088EB94E00E9421
:1049B0002E3388EBA82E84E0B82E8090BB04909014
:1049C000BC04A4016091B9048091B8040E94E91963
:1049D000F82E8111E5C13090BA04F601E819F90901
:1049E0004F0160E0332009F469C1C5010E942E33F4
:1049F0006090B1027090B2022090BD0486149704BA
:104A000008F014C14091BB045091BC04B090B804AC
:104A1000A090B904822D807F6A2D09F097C08B2D5C
:104A20000E94E919811124C0D80111968C91119727
:104A30008A111EC08C918B111BC02091BE04309135
:104A4000BF0416968D919C9117972817390781F40A
:104A5000E1100EC0822D8F7080618093BD0488EBC1
:104A600094E00E9446038091BD04F8018583B4C19F
:104A7000F4EF6F16F1E07F0620F48091B60280FF1C
:104A800021C0A601652D842D0E94E919811103C062
:104A900081E08E2502C080E090E080FF13C04E2DA3
:104AA000652D842D0E94B531882361F088EB94E058
:104AB0000E944603E8EBF4E088E0DF011D928A954E
:104AC000E9F78AC1A601652D842D0E94E91981119B
:104AD00003C081E08E2502C080E090E0B82FB17065
:104AE000CB2E80FF2AC04E2D652D842D0E94B5311E
:104AF000D82E811122C0498A5A8A89899A890E94AE
:104B0000F822292F22952F70223018F0243078F4C3
:104B100005C09F7049F0811107C00DC09F7021F042
:104B2000F8019581907F39F0805E883020F0C801CF
:104B30000E944603DC2CFD2C4FC1EE2009F44BC132
:104B40008091BD0481608093BD0446C18B2D0E947D
:104B5000E919811124C0D80111968C9111978A11FD
:104B60001EC08C918B111BC02091BE043091BF04DC
:104B700016968D919C9117972817390781F4E110AB
:104B80000EC015962C92C8010E94460388E0F801D9
:104B9000A8EBB4E001900D928A95E1F76FC0C801CF
:104BA0000E949A238823E1F1EE20D1F12091BD04E7
:104BB000822F82958F7090E00297A4F08091B804C4
:104BC0009091B9049A8789871B86DD86CC862E87CB
:104BD0008091BE049091BF04988B8F87CE01099677
:104BE0000E94460388E0F801A8EBB4E001900D9222
:104BF0008A95E1F70E94DF3116C0F090B8049090DA
:104C0000B9044091BB045091BC04692D8F2D0E94C2
:104C1000E919882399F0C8010E949A23811130C0B4
:104C2000C8010E944603FF24F394D6C0822D807FE2
:104C300021F788EB94E00E944603ACC0D80111969E
:104C40008C9111978911E7CF8C918F11E4CF20912E
:104C5000BE043091BF0416968D919C91179728172A
:104C60003907C9F6E110D7CF15962C92C8010E94DA
:104C7000460388E0F50111928A95E9F7F32CACC060
:104C8000EE2071F22091BD04822F82958F7090E00A
:104C900002970CF4A7CF8091B8049091B9049A833D
:104CA00089831B82DD82CC822E838091BE04909109
:104CB000BF0498878F83CE01019692CF88EB94E052
:104CC0000E942E338091B1029091B202881699060B
:104CD00008F060C0FE2CEE2009F4A2CFE090B804EA
:104CE000D090B9044091BB045091BC046D2D8E2D21
:104CF0000E94E919811140C0D80111968C91119739
:104D00008D113AC08C918E1137C02091BE04309124
:104D1000BF0416968D919C9117972817390761F556
:104D20008091B60282FD1FC08091BD0480FD1BC032
:104D300082958F70482F50E041155105A1F02091C8
:104D4000BD0415962C9315974F30510549F08F5F90
:104D5000982F9295907F822F8F70892B15968C9328
:104D6000C8010E94460388E0F801A8EBB4E0019076
:104D70000D928A95E1F730C0C8010E949A238111F3
:104D800031CF8091BD0481608093BD04C8010E9431
:104D9000460322C088E0F50111928A95E9F71CC00C
:104DA000EE2009F43DCFC8010E949A23F82E8823F3
:104DB00009F436CF88E0F801A8EBB4E001900D9239
:104DC0008A95E1F78091B8049091B9040E94F82285
:104DD0000E94DF3101C0F12C8F2D65960FB6F8943B
:104DE000DEBF0FBECDBFDF91CF911F910F91FF901E
:104DF000EF90DF90CF90BF90AF909F908F907F907B
:104E00006F905F904F903F902F900895EF92FF9298
:104E10000F931F93CF93DF93CDB7DEB760970FB695
:104E2000F894DEBF0FBECDBF29873A874B875C87DA
:104E30006D877E878F87988BCE0109960E94A52467
:104E400081114AC088E0FE013996DE011196019079
:104E50000D928A95E1F7E984FA840C851D85A801F5
:104E60006F2D8E2D0E94E919811136C0A091C004CA
:104E7000B0E0CD010196877099272091010530E0BF
:104E80008217930781F1E982FA821D830C8393E0F4
:104E9000AA0FBB1F9A95E1F7AF53BB4F98E0FE01F5
:104EA000319601900D929A95E1F78093C0040E948B
:104EB000D53112C028E0829FC00111248F539B4F2F
:104EC0000E94A5248823E1F08091010590E00196DD
:104ED0008770992780930105809101059091C00406
:104EE0008913E8CF0DC00E94A9231092C00410922C
:104EF0000105E8EBF4E088E0DF011D928A95E9F70F
:104F000060960FB6F894DEBF0FBECDBFDF91CF9194
:104F10001F910F91FF90EF900895883080F49B01CE
:104F2000982F8AE0989FB0011124655F7E4F4AE078
:104F300050E0C9010E940C3680E090E008958FEFA8
:104F40009FEF08950F931F93CF93DF93843058F50D
:104F5000663048F5443038F521159CE5390731F4C1
:104F6000E091B604F091B704EF2BE9F08901C42F6A
:104F7000D0E0CC0FDD1F98E0699FC00DD11D11243A
:104F800090E3899FC00DD11D1124612FCE0187961A
:104F90000E942A36602FCE018896DF91CF911F9113
:104FA0000F910C942A36DF91CF911F910F910895A4
:104FB0006F927F928F929F92AF92BF92CF92DF9229
:104FC000EF92FF920F931F93CF93DF93CDB7DEB78E
:104FD0006E970FB6F894DEBF0FBECDBFA090B6049B
:104FE000B090B70481E090E09093B7048093B6044A
:104FF000612CC12CD12C712CE12CF12C00E010E0A3
:1050000046018E0C9F1CF401E00FF11FEE0FFF1FF5
:10501000E352FB4F25913491402F672D862D0E943E
:10502000A2270F5F1F4F0430110569F784E0E80ED7
:10503000F11C7394E6E07E12E1CFF8E1CF0ED11CB3
:10504000639484E06812D7CF0E94721C1A8219827E
:105050001C821B821E821D8218861F8288EC90E0B3
:105060009A8789870BE011E04AE050E0B801CE0151
:1050700001960E944E36065F1F4F0B35E1E01E077A
:1050800099F77E01FBE0EF0EF11C8AE0F701119227
:105090008A95E9F74AE050E0B801C7010E944E3610
:1050A000065F1F4F0B3AF1E01F07A1F77E0185E174
:1050B000E80EF11C8AE0F70111928A95E9F78FEF6B
:1050C0009FEF9A8F898F87E08E8F4AE050E0B8017A
:1050D000C7010E944E36065F1F4F0B3FF1E01F07CE
:1050E000A1F7B092B704A092B6046E960FB6F894EA
:1050F000DEBF0FBECDBFDF91CF911F910F91FF900B
:10510000EF90DF90CF90BF90AF909F908F907F9067
:105110006F9008950F931F93CF93DF93843008F51A
:105120006630F8F44430E8F4C42FD0E0CC0FDD1F33
:1051300028E0629FC00DD11D112430E3839FC00D74
:10514000D11D1124CE0187960E941C3690E0182FA5
:105150000027CE0188960E941C369801282BC90191
:1051600002C080E090E0DF91CF911F910F910895F0
:105170008F929F92AF92BF92CF92DF92EF92FF9267
:105180000F931F93CF93DF93CDB7DEB72A970FB658
:10519000F894DEBF0FBECDBF0EE314E08CE2C82E44
:1051A00084E0D82E9BEAE92EFF24F3942FE0922E80
:1051B0003BE2A32E34E0B32E88248394F6010193BE
:1051C00011936F014AE050E0B701CE0101960E94B1
:1051D0000C36F801892D11928A95E9F789819A8117
:1051E000F801918380838F8182838D818383888579
:1051F0008483898585838B819C81978386831086B0
:105200008A8587FF03C01686158603C0F801B68617
:10521000A58680FF02C0F801808681FF04C0F801E6
:1052200090859260908782FF04C0F8019085946019
:10523000908783FF04C0F80190859860908784FF71
:1052400004C0F80190859061908785FF04C0F80143
:10525000808580628087015F1F4FFAE0EF0EF11CAE
:105260008BEFE81681E0F80609F0A8CF2A960FB672
:10527000F894DEBF0FBECDBFDF91CF911F910F918C
:10528000FF90EF90DF90CF90BF90AF909F908F9066
:105290000895CF92DF92EF92FF920F931F93CF93D7
:1052A000DF93CDB7DEB72A970FB6F894DEBF0FBEF7
:1052B000CDBF80E5EBEDF3E0DF011D928A95E9F7C4
:1052C00088E3E2E4F2E0DF011D928A95E9F78BEDD5
:1052D000C82E83E0D82E7F010BE511E0F701D182C3
:1052E000C0824AE050E0B801CE0101960E940C361F
:1052F00088E0FE013196D60101900D928A95E1F782
:1053000089859A85D70113969C938E931297BAE05C
:10531000CB0ED11CE7E0EE0EF11C065F1F4F0B3ADF
:10532000F1E01F07D9F62A960FB6F894DEBF0FBE3C
:10533000CDBFDF91CF911F910F91FF90EF90DF9044
:10534000CF9008958F929F92AF92BF92CF92DF92AB
:10535000EF92FF920F931F93CF93DF93CDB7DEB7FA
:105360002A970FB6F894DEBF0FBECDBF03EC12E054
:10537000E12CF12C82ECC82E8AE2D82E9DEEA92ECB
:105380009AE2B92E28E2822E2AE2922EF801D182E8
:10539000C082B382A28295828482F58AE48ABE01A9
:1053A0006F5F7F4F8E2D0E948D27892B29F4898571
:1053B0009A85F801938B828BFFEFEF1AFF0A0A5E42
:1053C0001F4F88E0E816F10409F72A960FB6F89403
:1053D000DEBF0FBECDBFDF91CF911F910F91FF9028
:1053E000EF90DF90CF90BF90AF909F908F900895F7
:1053F000CF93DF9300D000D01F92CDB7DEB790934C
:10540000B6018093B501811520E2920748F40F9010
:105410000F900F900F900F90DF91CF910C94D0359B
:105420008EEF89838A831B820E945E178160782FAA
:105430009D838C8349815A816B818D810E943C338D
:105440000F900F900F900F900F90DF91CF910895D4
:105450000F931F93CF93DF938C01EB0161ED73E00A
:105460008C2F0E948D27892B09F046C08091B702AE
:105470009091B8020E94781BDD27C753DC4F8881CA
:10548000F80110821882833079F048F4813041F1BC
:10549000823091F58091D3039091D40309C0843078
:1054A00051F08530E9F028C08091D5039091D60362
:1054B0000097B1F01BC08091D7039091D80300975B
:1054C000A9F42091D1033091D2038091D30390911C
:1054D000D4032115310541F0009741F4C90106C0FC
:1054E0008091D1039091D203009731F0DF91CF9159
:1054F0001F910F910C94F829DF91CF911F910F917B
:105500000895CF93DF9300D000D01F92CDB7DEB7C0
:105510009093B6018093B501811520E2920748F47B
:105520000F900F900F900F900F90DF91CF910C94F0
:10553000EA358EEF89838A8381E08B830E945E1730
:105540008160782F9D838C8349815A816B818D8105
:105550000E943C330F900F900F900F900F90DF91AF
:10556000CF910895CF93DF93EC010E94812A80911F
:10557000B7029091B8020E94781BCE01DF91CF91C3
:105580000C94F8290F931F93CF93DF938C01862FF0
:1055900061ED73E00E948D27892BD1F4C091D10376
:1055A000D091D2032097A1F0F8018081833039F4A3
:1055B000CE010E94B22ACE010E94B22A02C08430DB
:1055C00038F0CE01DF91CF911F910F910C94B22A48
:1055D000DF91CF911F910F9108950F931F93CF9358
:1055E000DF938C01EB0161ED73E08C2F0E948D271E
:1055F000892B09F06DC0DD27F8018081813041F4ED
:105600009185911115C09285992391F082E010C087
:10561000823049F4F8018185811107C082858111AA
:1056200006C083E005C086E003C085E001C084E0D9
:10563000C753DC4F88838330B1F028F4813071F098
:10564000823031F045C08430A9F0853079F140C016
:105650008091D3039091D4030097A1F58091D10359
:105660009091D20320C08091D5039091D6030097EA
:10567000E9F028C08091D7039091D803009711F5E5
:105680008091D1039091D203009749F00E94B22AF1
:105690008091D3039091D403009781F013C080913F
:1056A000D3039091D403009799F00CC08091D1035B
:1056B0009091D203009761F00E94B22A8091D103A9
:1056C0009091D203DF91CF911F910F910C94812A79
:1056D000DF91CF911F910F91089581152CE59207CD
:1056E00059F48091B6049091B704892B19F480E0A5
:1056F00090E0089580E09CE5089586E290E00C94A7
:105700002A36CF93C82F811102C06FEF01C066EF18
:1057100083E290E00E942A36C11102C06FEF01C0FF
:1057200068E884E290E00E942A36C11102C06FEF5F
:1057300001C06CE085E290E0CF910C942A3680E0C5
:105740000E94812B60E070E0CB010E947D2B0E94C3
:10575000D8270E94BA1C81E00C94812B83E290E050
:105760000E941C36863F81F484E290E00E941C3641
:10577000883851F485E290E00E941C3691E08C302C
:1057800009F090E0892F01C080E0817008950E94A7
:105790005E172091C503211104C02091C603222366
:1057A00021F09093C2038093C1032091C70321117C
:1057B00004C02091C803222321F09093C00380935A
:1057C000BF03E0917503F0917603309749F082E0D2
:1057D0008093C3030480F581E02D83EC93E009946A
:1057E0000895803F39F48091C60387FF6AC0109204
:1057F000C60367C0813F29F48091C6031816BCF325
:1058000060C09091C503823F29F497FF5AC010925F
:10581000C50357C0833F19F41916CCF352C09091B9
:10582000C703893F31F419160CF04BC01092C7031F
:1058300048C08A3F19F497FF44C0F8CF8B3F39F432
:105840008091C80387FF3DC01092C8033AC08C3FC7
:1058500029F48091C8031816BCF333C0843F21F4A7
:105860008091C4038E7F17C0853F21F48091C403CB
:105870008D7F11C0863F21F48091C4038B7F0BC0C4
:10588000873F21F48091C403877F05C0883F31F4AE
:105890008091C4038F7E8093C40313C08D3F21F495
:1058A0008091BE038E7F0BC08E3F21F48091BE039A
:1058B0008D7F05C08F3F29F48091BE038B7F80933D
:1058C000BE038091C503811106C08091C60381117A
:1058D00002C01092BD038091C703811106C0809160
:1058E000C803811102C01092BC0308958091BE03C9
:1058F00080FF08C06091100170E0759567957595FF
:10590000679521C081FF06C06091100170E0759518
:10591000679519C082FF04C06091100170E010C04B
:105920009091BC03992399F060910F019617A0F70D
:1059300080911001899FC001112470E00E947A3685
:105940006038710540F46115710519F406C061E015
:1059500070E0862F08958FE7089581E00895809183
:10596000BE032091A1023091A20280FF0CC0809161
:105970001401829FB001839F700D11247695679565
:10598000769567952FC081FF0AC080911401829F90
:10599000B001839F700D11247695679523C082FF17
:1059A00008C080911401829FB001839F700D112463
:1059B00019C04091BD03411102C0B90113C06091EB
:1059C0001301461770F780911401849FA0011124E0
:1059D000429FC001439F900D529F900D112470E093
:1059E0000E9466366038710528F46115710521F052
:1059F000862F08958FE7089581E00895803F21F470
:105A00000E94AF2C819504C0813F29F40E94AF2CE5
:105A10008093C6030895823F21F40E94AF2C8195A4
:105A200004C0833F29F40E94AF2C8093C5030895DE
:105A3000893F19F40E94762C05C08A3F31F40E94F8
:105A4000762C81958093C70308958B3F21F40E94A3
:105A5000762C819504C08C3F29F40E94762C80938B
:105A6000C8030895843F21F48091C403816017C066
:105A7000853F21F48091C403826011C0863F21F4E8
:105A80008091C40384600BC0873F21F48091C403DC
:105A9000886005C0883F31F48091C40380618093A1
:105AA000C40308958D3F21F48091BE0381600BC033
:105AB0008E3F21F48091BE03826005C08F3F29F4A0
:105AC0008091BE0384608093BE03089580E00895B2
:105AD00090917E0392FF0DC0282F2871283019F471
